{
  "_format": "hh-sol-artifact-1",
  "contractName": "VestingVault12",
  "sourceName": "contracts/VestingVault12.sol",
  "abi": [
    {
      "constant": false,
      "inputs": [
        {
          "name": "_newMultisig",
          "type": "address"
        }
      ],
      "name": "changeMultiSig",
      "outputs": [],
      "payable": false,
      "stateMutability": "nonpayable",
      "type": "function"
    },
    {
      "constant": true,
      "inputs": [
        {
          "name": "_grantId",
          "type": "uint256"
        }
      ],
      "name": "calculateGrantClaim",
      "outputs": [
        {
          "name": "",
          "type": "uint16"
        },
        {
          "name": "",
          "type": "uint256"
        }
      ],
      "payable": false,
      "stateMutability": "view",
      "type": "function"
    },
    {
      "constant": false,
      "inputs": [
        {
          "name": "_recipient",
          "type": "address"
        },
        {
          "name": "_startTime",
          "type": "uint256"
        },
        {
          "name": "_amount",
          "type": "uint256"
        },
        {
          "name": "_vestingDurationInDays",
          "type": "uint16"
        },
        {
          "name": "_vestingCliffInDays",
          "type": "uint16"
        }
      ],
      "name": "addTokenGrant",
      "outputs": [],
      "payable": false,
      "stateMutability": "nonpayable",
      "type": "function"
    },
    {
      "constant": false,
      "inputs": [
        {
          "name": "_grantId",
          "type": "uint256"
        }
      ],
      "name": "removeTokenGrant",
      "outputs": [],
      "payable": false,
      "stateMutability": "nonpayable",
      "type": "function"
    },
    {
      "constant": true,
      "inputs": [
        {
          "name": "",
          "type": "uint256"
        }
      ],
      "name": "tokenGrants",
      "outputs": [
        {
          "name": "startTime",
          "type": "uint256"
        },
        {
          "name": "amount",
          "type": "uint256"
        },
        {
          "name": "vestingDuration",
          "type": "uint16"
        },
        {
          "name": "vestingCliff",
          "type": "uint16"
        },
        {
          "name": "daysClaimed",
          "type": "uint16"
        },
        {
          "name": "totalClaimed",
          "type": "uint256"
        },
        {
          "name": "recipient",
          "type": "address"
        }
      ],
      "payable": false,
      "stateMutability": "view",
      "type": "function"
    },
    {
      "constant": false,
      "inputs": [
        {
          "name": "_grantId",
          "type": "uint256"
        }
      ],
      "name": "claimVestedTokens",
      "outputs": [],
      "payable": false,
      "stateMutability": "nonpayable",
      "type": "function"
    },
    {
      "constant": true,
      "inputs": [
        {
          "name": "_recipient",
          "type": "address"
        }
      ],
      "name": "getActiveGrants",
      "outputs": [
        {
          "name": "",
          "type": "uint256[]"
        }
      ],
      "payable": false,
      "stateMutability": "view",
      "type": "function"
    },
    {
      "constant": true,
      "inputs": [],
      "name": "totalVestingCount",
      "outputs": [
        {
          "name": "",
          "type": "uint256"
        }
      ],
      "payable": false,
      "stateMutability": "view",
      "type": "function"
    },
    {
      "constant": false,
      "inputs": [
        {
          "name": "_grantIds",
          "type": "uint256[]"
        }
      ],
      "name": "claimManyVestedTokens",
      "outputs": [],
      "payable": false,
      "stateMutability": "nonpayable",
      "type": "function"
    },
    {
      "constant": true,
      "inputs": [],
      "name": "v12MultiSig",
      "outputs": [
        {
          "name": "",
          "type": "address"
        }
      ],
      "payable": false,
      "stateMutability": "view",
      "type": "function"
    },
    {
      "constant": true,
      "inputs": [
        {
          "name": "_grantId",
          "type": "uint256"
        }
      ],
      "name": "tokensVestedPerDay",
      "outputs": [
        {
          "name": "",
          "type": "uint256"
        }
      ],
      "payable": false,
      "stateMutability": "view",
      "type": "function"
    },
    {
      "constant": true,
      "inputs": [],
      "name": "token",
      "outputs": [
        {
          "name": "",
          "type": "address"
        }
      ],
      "payable": false,
      "stateMutability": "view",
      "type": "function"
    },
    {
      "inputs": [
        {
          "name": "_token",
          "type": "address"
        }
      ],
      "payable": false,
      "stateMutability": "nonpayable",
      "type": "constructor"
    },
    {
      "anonymous": false,
      "inputs": [
        {
          "indexed": true,
          "name": "recipient",
          "type": "address"
        },
        {
          "indexed": false,
          "name": "vestingId",
          "type": "uint256"
        }
      ],
      "name": "GrantAdded",
      "type": "event"
    },
    {
      "anonymous": false,
      "inputs": [
        {
          "indexed": true,
          "name": "recipient",
          "type": "address"
        },
        {
          "indexed": false,
          "name": "amountClaimed",
          "type": "uint256"
        }
      ],
      "name": "GrantTokensClaimed",
      "type": "event"
    },
    {
      "anonymous": false,
      "inputs": [
        {
          "indexed": false,
          "name": "recipient",
          "type": "address"
        },
        {
          "indexed": false,
          "name": "amountVested",
          "type": "uint256"
        },
        {
          "indexed": false,
          "name": "amountNotVested",
          "type": "uint256"
        }
      ],
      "name": "GrantRemoved",
      "type": "event"
    },
    {
      "anonymous": false,
      "inputs": [
        {
          "indexed": false,
          "name": "multisig",
          "type": "address"
        }
      ],
      "name": "ChangedMultisig",
      "type": "event"
    }
  ],
  "bytecode": "0x608060405234801561001057600080fd5b506040516020806113ba8339810160405251600160a060020a038116151561003757600080fd5b60038054600160a060020a0319908116331790915560008054600160a060020a039390931692909116919091179055611345806100756000396000f3006080604052600436106100b95763ffffffff7c01000000000000000000000000000000000000000000000000000000006000350416632902a0ca81146100be57806332b1c5b7146100e15780635ca2fc53146101175780636f1b526d1461014b5780636fc559bb146101635780637935510b146101c45780638bf1ad4c146101dc57806399d508c01461024d578063c582c07d14610274578063d531ebc014610294578063f09dafb2146102c5578063fc0c546a146102dd575b600080fd5b3480156100ca57600080fd5b506100df600160a060020a03600435166102f2565b005b3480156100ed57600080fd5b506100f9600435610448565b6040805161ffff909316835260208301919091528051918290030190f35b34801561012357600080fd5b506100df600160a060020a036004351660243560443561ffff6064358116906084351661057c565b34801561015757600080fd5b506100df600435610a43565b34801561016f57600080fd5b5061017b600435610c39565b60408051978852602088019690965261ffff9485168787015292841660608701529216608085015260a0840191909152600160a060020a031660c0830152519081900360e00190f35b3480156101d057600080fd5b506100df600435610c8b565b3480156101e857600080fd5b506101fd600160a060020a0360043516610f20565b60408051602080825283518183015283519192839290830191858101910280838360005b83811015610239578181015183820152602001610221565b505050509050019250505060405180910390f35b34801561025957600080fd5b50610262610f8c565b60408051918252519081900360200190f35b34801561028057600080fd5b506100df6004803560248101910135610f92565b3480156102a057600080fd5b506102a9611204565b60408051600160a060020a039092168252519081900360200190f35b3480156102d157600080fd5b50610262600435611213565b3480156102e957600080fd5b506102a9611249565b600354600160a060020a03163314610354576040805160e560020a62461bcd02815260206004820152600960248201527f6e6f74206f776e65720000000000000000000000000000000000000000000000604482015290519081900360640190fd5b80600160a060020a038116158015906103765750600160a060020a0381163014155b80156103905750600054600160a060020a03828116911614155b15156103e6576040805160e560020a62461bcd02815260206004820152601460248201527f6e6f742076616c6964205f726563697069656e74000000000000000000000000604482015290519081900360640190fd5b60038054600160a060020a03841673ffffffffffffffffffffffffffffffffffffffff19909116811790915560408051918252517f1095c9869752f7f59b0736661c1ccc9e0314e35c10af8ee5482f57836852f2079181900360200190a15050565b6000818152600160205260408120805482919082908190819081908190819061046f611258565b10156104815760009850889750610570565b865461049b9061048f611258565b9063ffffffff61125c16565b95506104b0866201518063ffffffff61127a16565b600288015490955062010000900461ffff168510156104d757939750600096508793610570565b600287015461ffff16851061051457600387015460018801546104ff9163ffffffff61125c16565b600288015461ffff1699509750879350610570565b6002870154610530908690640100000000900461ffff1661125c565b60028801546001890154919450610551919061ffff1663ffffffff61127a16565b915061056761ffff84168363ffffffff61129d16565b90508281985098505b50505050505050915091565b60006105866112dd565b600354600160a060020a031633146105e8576040805160e560020a62461bcd02815260206004820152600960248201527f6e6f74206f776e65720000000000000000000000000000000000000000000000604482015290519081900360640190fd5b610e4261ffff84161115610646576040805160e560020a62461bcd02815260206004820152601260248201527f6d6f7265207468616e2031302079656172730000000000000000000000000000604482015290519081900360640190fd5b6123a561ffff851611156106a4576040805160e560020a62461bcd02815260206004820152601260248201527f6d6f7265207468616e2032352079656172730000000000000000000000000000604482015290519081900360640190fd5b61ffff8084169085161015610703576040805160e560020a62461bcd02815260206004820152601060248201527f4475726174696f6e203c20436c69666600000000000000000000000000000000604482015290519081900360640190fd5b6107178561ffff861663ffffffff61127a16565b915060008211610771576040805160e560020a62461bcd02815260206004820152601660248201527f616d6f756e74566573746564506572446179203e203000000000000000000000604482015290519081900360640190fd5b60008054600354604080517f23b872dd000000000000000000000000000000000000000000000000000000008152600160a060020a039283166004820152306024820152604481018a9052905191909216926323b872dd92606480820193602093909283900390910190829087803b1580156107ec57600080fd5b505af1158015610800573d6000803e3d6000fd5b505050506040513d602081101561081657600080fd5b5051151561086e576040805160e560020a62461bcd02815260206004820152600f60248201527f7472616e73666572206661696c65640000000000000000000000000000000000604482015290519081900360640190fd5b60e060405190810160405280876000146108885787610890565b610890611258565b81526020018681526020018561ffff1681526020018461ffff168152602001600061ffff1681526020016000815260200188600160a060020a0316815250905080600160006004548152602001908152602001600020600082015181600001556020820151816001015560408201518160020160006101000a81548161ffff021916908361ffff16021790555060608201518160020160026101000a81548161ffff021916908361ffff16021790555060808201518160020160046101000a81548161ffff021916908361ffff16021790555060a0820151816003015560c08201518160040160006101000a815481600160a060020a030219169083600160a060020a031602179055509050506002600088600160a060020a0316600160a060020a03168152602001908152602001600020600454908060018154018082558091505090600182039060005260206000200160009091929091909150555086600160a060020a03167f9d2a1eab91557a277ec725fe26546609d5a33a550c3f3476982ee177252be8f46004546040518082815260200191505060405180910390a250506004805460010190555050505050565b6003546000908190819081908190600160a060020a03163314610ab0576040805160e560020a62461bcd02815260206004820152600960248201527f6e6f74206f776e65720000000000000000000000000000000000000000000000604482015290519081900360640190fd5b60008681526001602052604090206004810154909550600160a060020a03169350610ada86610448565b60038701546001880154929550909350610afa919063ffffffff61125c16565b60008054600354604080517fa9059cbb000000000000000000000000000000000000000000000000000000008152600160a060020a03928316600482015260248101869052905194955091169263a9059cbb92604480840193602093929083900390910190829087803b158015610b7057600080fd5b505af1158015610b84573d6000803e3d6000fd5b505050506040513d6020811015610b9a57600080fd5b50511515610ba757600080fd5b60008086556001860181905560028601805465ffffffffffff19169055600386015560048501805473ffffffffffffffffffffffffffffffffffffffff1916905560408051600160a060020a03861681526020810184905280820183905290517f8f1462bc75233ee60d368eb1925fc2a7f205e6a8ef562c9bdf9c06db8b41aa769181900360600190a1505050505050565b600160208190526000918252604090912080549181015460028201546003830154600490930154919261ffff8083169362010000840482169364010000000090049091169190600160a060020a031687565b600081815260016020526040812060040154819081908490600160a060020a03163314610d02576040805160e560020a62461bcd02815260206004820152600d60248201527f6e6f7420726563697069656e7400000000000000000000000000000000000000604482015290519081900360640190fd5b610d0b85610448565b909450925060008311610d68576040805160e560020a62461bcd02815260206004820152601160248201527f616d6f756e745665737465642069732030000000000000000000000000000000604482015290519081900360640190fd5b60008581526001602052604090206002810154909250610d9e90640100000000900461ffff90811690861663ffffffff6112cb16565b60028301805461ffff929092166401000000000265ffff00000000199092169190911790556003820154610dd8908463ffffffff6112cb16565b600383015560008054600480850154604080517fa9059cbb000000000000000000000000000000000000000000000000000000008152600160a060020a0392831693810193909352602483018890525192169263a9059cbb926044808401936020939083900390910190829087803b158015610e5357600080fd5b505af1158015610e67573d6000803e3d6000fd5b505050506040513d6020811015610e7d57600080fd5b50511515610ed5576040805160e560020a62461bcd02815260206004820152600960248201527f6e6f20746f6b656e730000000000000000000000000000000000000000000000604482015290519081900360640190fd5b6004820154604080518581529051600160a060020a03909216917fc6cbb4aa8681b18644bf64921eea8f2b9f44cbd58d64fc07a110bfccc20382969181900360200190a25050505050565b600160a060020a038116600090815260026020908152604091829020805483518184028101840190945280845260609392830182828015610f8057602002820191906000526020600020905b815481526020019060010190808311610f6c575b50505050509050919050565b60045481565b6000808080805b858510156111fb57868686818110610fad57fe5b905060200201359350610fbf84610448565b6000868152600160205260409020600401549194509250600160a060020a031633141580610fee575060008211155b8061108c575060008054604080517f70a0823100000000000000000000000000000000000000000000000000000000815230600482015290518593600160a060020a03909316926370a0823192602480820193602093909283900390910190829087803b15801561105e57600080fd5b505af1158015611072573d6000803e3d6000fd5b505050506040513d602081101561108857600080fd5b5051105b15611096576111f0565b50600083815260016020526040902060028101546110ca90640100000000900461ffff90811690851663ffffffff6112cb16565b60028201805461ffff929092166401000000000265ffff00000000199092169190911790556003810154611104908363ffffffff6112cb16565b600382015560008054600480840154604080517fa9059cbb000000000000000000000000000000000000000000000000000000008152600160a060020a0392831693810193909352602483018790525192169263a9059cbb926044808401936020939083900390910190829087803b15801561117f57600080fd5b505af1158015611193573d6000803e3d6000fd5b505050506040513d60208110156111a957600080fd5b50506004810154604080518481529051600160a060020a03909216917fc6cbb4aa8681b18644bf64921eea8f2b9f44cbd58d64fc07a110bfccc20382969181900360200190a25b600190940193610f99565b50505050505050565b600354600160a060020a031681565b600081815260016020819052604082206002810154918101549091611242919061ffff1663ffffffff61127a16565b9392505050565b600054600160a060020a031681565b4290565b6000808383111561126c57600080fd5b5050808203805b5092915050565b60008080831161128957600080fd5b828481151561129457fe5b04949350505050565b6000808315156112b05760009150611273565b508282028284828115156112c057fe5b041461124257600080fd5b60008282018381101561124257600080fd5b6040805160e081018252600080825260208201819052918101829052606081018290526080810182905260a0810182905260c0810191909152905600a165627a7a7230582075eb89965b0651940399cbc97c8574844233e49b1516e22bd2d40b18ad2ee0d50029",
  "linkReferences": {},
  "deployedLinkReferences": {}
}